01REMESSA01COBRANCA       123400567890        EMPRESA TESTE LTDA            341BANCO ITAU SA  260626                                                                                                                                                                                                                                                                                                      000001